:100000000C9434000C9451000C9451000C94510049
:100010000C9451000C9451000C9451000C9451001C
:100020000C9451000C9451000C9451000C9451000C
:100030000C9451000C9451000C9451000C945100FC
:100040000C9451000C9451000C945D000C945100E0
:100050000C9451000C9451000C9451000C945100DC
:100060000C9451000C94510011241FBECFEFD8E026
:10007000DEBFCDBF13E0A0E0B1E0ECEDFAE002C0DE
:1000800005900D92A838B107D9F725E0A8E8B3E0AC
:1000900001C01D92A531B207E1F70E9490000C94B7
:1000A0006C050C9400009091C00095FFFCCF8093EC
:1000B000C60008958091C60008951F920F920FB652
:1000C0000F9211242F933F934F935F936F937F93DE
:1000D0008F939F93AF93BF93EF93FF9388E893E041
:1000E0000E94E300FF91EF91BF91AF919F918F919B
:1000F0007F916F915F914F913F912F910F900FBE24
:100100000F901F90189583E090E09093C500809326
:10011000C40088E98093C10086E08093C2000895FE
:10012000CF93DF9300D000D000D0CDB7DEB783E50A
:1001300090E090938903809388038AE590E0909300
:100140008B0380938A0383E087B984E088B90E9497
:1001500083002FEF8FEB96E0215080409040E1F735
:1001600000C000007894409A88E893E00E94B401AF
:1001700088E893E00E94440186E0E6E0F1E0DE01D9
:10018000119601900D928A95E1F7419A3299FECF2E
:10019000419805E610E02FEF8FE39BE0215080406F
:1001A0009040E1F700C0000028E833E042E066E05C
:1001B000CE0101960E94DC020150110901151105C2
:1001C00051F7419AFFCF0F931F93CF93DF93EC0129
:1001D0000C8110E0EA81FB810995FE01E00FF11F1F
:1001E00085838C818F5F8C83EC81F0E03197EC0FFD
:1001F000FD1F85818E37F9F48C8190E00297DCF049
:1002000020E830E0AE014C5F5F4FBE016B5F7F4F77
:10021000CE01885F9E4F0E947803FE01EB57FF4F8F
:100220009183808380819181181619061CF481E0E6
:10023000329680831C82DF91CF911F910F91089598
:10024000CF92DF92FF920F931F93CF93DF931F9272
:10025000CDB7DEB78A01F82E6C018C2D8F19861769
:1002600050F4D801ED91FC91D6018D916D01698317
:1002700009956981F2CF0F90DF91CF911F910F9176
:10028000FF90DF90CF900895AF92BF92CF92DF9210
:10029000EF92FF920F931F93CF93DF93EC018C01AA
:1002A00008571F4F20E830E04DE050E060E271E079
:1002B000C8010E94EA036E0198E7C91A9EEFD90AA5
:1002C000F6018083AE01682FC8010E9420017E01E3
:1002D000F7E8EF0EF11CF70180818823E1F310822B
:1002E000FE01EB57FF4F808191815E01F5EFAF1A60
:1002F000FEEFBF0AF70180818823E1F3108220E836
:1003000030E044E050E06DE271E0C8010E94EA0391
:10031000F6018083AE01682FC8010E942001F5011B
:100320008081833039F380818111E4CFDF91CF91D7
:100330001F910F91FF90EF90DF90CF90BF90AF9003
:100340000895282FDB01FC0190E08E2F821B84177B
:1003500030F431918D913813F8CF9F5FF6CF81E063
:10036000941708F480E008958F929F92AF92BF9205
:10037000CF92DF92EF92FF920F931F93CF93DF9371
:100380008C017C0127E8E20EF11CF70180818823B3
:10039000E1F3108288E0F801E65FFE4F80834801B8
:1003A000F5E88F0E911CF401408151815801F8EF5E
:1003B000AF1AFEEFBF0A6BE771E0C5010E94A10111
:1003C000E801C857DF4F980128573E4F690188233D
:1003D00081F020E830E044E050E067E771E0CE01D2
:1003E0000E94EA03F6018083A801682FCE010E94D3
:1003F000200120E830E043E050E064E771E0CE0106
:100400000E94EA03F6018083A801682FCE010E94B2
:100410002001F70180818823E1F31082F4014081FB
:10042000518160E771E0C5010E94A101882381F03C
:1004300020E830E044E050E060E771E0CE010E9447
:10044000EA03F6018083A801682FCE010E942001F3
:10045000F70180818823E1F31082F401408151810A
:1004600064E671E0C5010E94A101882381F020E8C3
:1004700030E044E050E067E771E0CE010E94EA031B
:10048000F6018083A801682FCE010E942001F701A8
:1004900080818823E1F31082F4014081518168E575
:1004A00071E0C5010E94A101882381F020E830E0BD
:1004B00044E050E067E771E0CE010E94EA03F601F4
:1004C0008083A801682FCE010E942001F70180815E
:1004D0008823E1F31082F401408151816CE471E0E2
:1004E000C5010E94A101882381F020E830E044E0AA
:1004F00050E067E771E0CE010E94EA03F6018083D5
:10050000A801682FCE010E942001F7018081882375
:10051000E1F31082F4014081518160E471E0C50192
:100520000E94A101882381F020E830E044E050E0FF
:1005300067E771E0CE010E94EA03F6018083A8011B
:10054000682FCE010E942001F70180818823E1F30A
:100550001082F4014081518161E371E0C5010E9484
:10056000A1018823E1F020E830E044E050E06DE2B2
:1005700071E0CE010E94EA03F6018083A801682F92
:10058000CE01DF91CF911F910F91FF90EF90DF90FF
:10059000CF90BF90AF909F908F900C942001DF91EF
:1005A000CF911F910F91FF90EF90DF90CF90BF9070
:1005B000AF909F908F9008956F927F929F92AF928D
:1005C000BF92CF92DF92EF92FF920F931F93CF9340
:1005D000DF931F92CDB7DEB77C01942E89016901AC
:1005E00088E7C81A8EEFD80AF60110828CE0860FD1
:1005F000A82EB12CC50169830E943C043C018BE00C
:10060000E0E1F1E0D30101900D928A95E1F7698173
:1006100089E0860FF30181836387462F50E0B7019D
:10062000C3010C960E946305F30195827801F8E8F6
:10063000EF0EF11C20E830E0A501B301C7010E94D4
:10064000EA03F6018083A801682FC7010E942001F8
:10065000C3010E94D404F801E957FF4F8081882329
:10066000E9F31082F801EB57FF4F408151816CE0B4
:1006700071E0C801885F9E4F0E94A10191E0811145
:1006800001C090E0892F0F90DF91CF911F910F91C2
:10069000FF90EF90DF90CF90BF90AF909F907F90B2
:1006A0006F900895FC01E627FF27EE0FFF1FE95723
:1006B000FE4F892F99272081318182279327089522
:1006C0000F931F93CF93DF938B01EC01080F191F3A
:1006D0008FEF9FEFC017D10721F069910E9452035D
:1006E000F9CF80959095DF91CF911F910F9108954B
:1006F0007F928F929F92AF92BF92CF92DF92EF92B2
:10070000FF920F931F93CF93DF935C017B016A01EC
:1007100049018B0170E0E0E060E08FEF9FEFC0E007
:10072000D0E020E2722E98012E193F09D6014C919B
:1007300050E02417350748F5D8014D918D014E370B
:1007400069F46623F1F0EE23E1F02F5FF6012083D8
:10075000883B904FE9F4CE0102971FC04D3799F0C6
:10076000662309F3F501EC0FFD1F71114725408346
:100770008C169D0680F060810E945203219670E0E5
:10078000E1E061E0D0CF71E0CECF8EEF9FEF05C00A
:100790008FEF9FEF02C08DEF9FEFDF91CF911F9101
:1007A0000F91FF90EF90DF90CF90BF90AF909F9010
:1007B0008F907F900895FC0183E8860F823038F493
:1007C0008DE7808380E28627818382E008956083BD
:1007D00081E008958F929F92AF92BF92CF92DF9265
:1007E000EF92FF920F931F93CF93DF937C015B01F6
:1007F0008A016901BA01C5010E9460034C018EE7BC
:10080000F7018083E501A00EB11E01E010E0F4E0E5
:10081000CF1AD108C701800F911FCA15DB0559F007
:1008200069910E94DB03080F111DC016D10690F7D5
:100830008DEF9FEF14C0682D0E94DB03080F111D80
:10084000692DC701800F911F0E94DB03080F111D46
:10085000F701E00FF11F8EE78083C8010196DF9159
:10086000CF911F910F91FF90EF90DF90CF90BF90AD
:10087000AF909F908F900895CF93DF938230910532
:1008800010F482E090E0E0911305F091140520E06F
:1008900030E0A0E0B0E0309739F140815181481755
:1008A0005907B8F04817590771F48281938110975E
:1008B00029F013969C938E9312972CC09093140555
:1008C0008093130527C02115310531F042175307D6
:1008D00018F0A901DB0101C0EF019A01BD01DF01A0
:1008E0000280F381E02DD7CF21153105F9F0281BC7
:1008F000390B2430310580F48A819B8161157105A3
:1009000021F0FB019383828304C0909314058093AC
:100910001305FE01329644C0FE01E20FF31F8193DE
:10092000919322503109398328833AC020911105CF
:1009300030911205232B41F42091020130910301E3
:10094000309312052093110520910001309101018F
:100950002115310541F42DB73EB740910401509166
:100960000501241B350BE0911105F0911205E217EA
:10097000F307A0F42E1B3F0B2817390778F0AC01C2
:100980004E5F5F4F2417350748F04E0F5F1F50939F
:100990001205409311058193919302C0E0E0F0E0CD
:1009A000CF01DF91CF910895CF93DF93009709F4A2
:1009B00087C0FC01329713821282C0911305D09137
:1009C0001405209781F420813181280F391F8091EF
:1009D0001105909112058217930779F5F09312058E
:1009E000E09311056DC0DE0120E030E0AE17BF07D7
:1009F00050F412964D915C9113979D01411551054C
:100A000009F1DA01F3CFB383A28340815181840FCE
:100A1000951F8A179B0771F48D919C911197840FF4
:100A2000951F02969183808312968D919C911397C6
:100A3000938382832115310529F4F0931405E09303
:100A400013053EC0D9011396FC93EE9312974D9176
:100A50005D91A40FB51FEA17FB0779F4808191819E
:100A6000840F951F0296D90111969C938E938281D3
:100A7000938113969C938E931297E0E0F0E08A8125
:100A80009B81009719F0FE01EC01F9CFCE0102968F
:100A900028813981820F931F209111053091120511
:100AA0002817390769F4309729F410921405109229
:100AB000130502C013821282D0931205C093110550
:100AC000DF91CF910895FB01DC0102C001900D92EE
:0C0AD00041505040D8F70895F894FFCF33
:100ADC0000001505200044494E45524F0500050005
:100AEC00050D04F981010002FFFFFF04B16B00B595
:100AFC00010A0508020100F9810000012C0E000515
:100B0C00000E0C04000080010302F981000003E8D0
:100B1C000F09020000002405000000000F0904006A
:100B2C0000000204000000000F0904000001000393
:100B3C00000000080F090400000002020000000879
:100B4C00060005000600040F0005000F0908000050
:100B5C00000101000000000000891112239B3224C7
:100B6C0046AD573665BF74488CC19D5AAFD3BE6C29
:100B7C00CAE5DB7EE9F7F88110080193331A22A548
:100B8C00562C47B7753E64C99C408DDBBF52AEED09
:100B9C00DA64CBFFF976E802218B30100299132628
:100BAC0067AF763444BD554AADC3BC588ED19F6EE9
:100BBC00EBE7FA7CC8F5D983310A2091121803A708
:100BCC00772E66B5543C45CBBD42ACD99E508FEFC9
:100BDC00FB66EAFDD874C904428D5316619F7020E0
:100BEC0004A9153227BB364CCEC5DF5EEDD7FC68A9
:100BFC0088E1997AABF3BA85520C4397711E60A1C8
:100C0C00142805B3373A26CDDE44CFDFFD56ECE988
:100C1C00986089FBBB72AA06638F7214409D5122A7
:100C2C0025AB343006B9174EEFC7FE5CCCD5DD6A68
:100C3C00A9E3B8788AF19B87730E6295501C41A387
:100C4C00352A24B1163807CFFF46EEDDDC54CDEB48
:100C5C00B962A8F99A708B088481951AA793B62C5F
:100C6C00C2A5D33EE1B7F04008C919522BDB3A6458
:100C7C004EED5F766DFF7C899400859BB712A6AD17
:100C8C00D224C3BFF136E0C1184809D33B5A2AE538
:100C9C005E6C4FF77D7E6C0AA583B4188691972EF7
:100CAC00E3A7F23CC0B5D14229CB38500AD91B6618
:100CBC006FEF7E744CFD5D8BB502A499961087AFD7
:100CCC00F326E2BDD034C1C3394A28D11A580BE7F8
:100CDC007F6E6EF55C7C4D0CC685D71EE597F428AF
:100CEC0080A1913AA3B3B2444ACD5B5669DF7860D8
:100CFC000CE91D722FFB3E8DD604C79FF516E4A997
:100D0C00902081BBB332A2C55A4C4BD7795E68E1B7
:100D1C001C680DF33F7A2E0EE787F61CC495D52A76
:100D2C00A1A3B03882B193466BCF7A5448DD596297
:100D3C002DEB3C700EF91F8FF706E69DD414C5AB56
:100D4C00B122A0B9923083C77B4E6AD5585C49E377
:080D5C003D6A2CF11E780F0026
:00000001FF
